{
  "contractName": "MyNFT",
  "abi": [
    {
      "inputs": [],
      "stateMutability": "nonpayable",
      "type": "constructor"
    },
    {
      "anonymous": false,
      "inputs": [
        {
          "indexed": true,
          "internalType": "address",
          "name": "owner",
          "type": "address"
        },
        {
          "indexed": true,
          "internalType": "address",
          "name": "approved",
          "type": "address"
        },
        {
          "indexed": true,
          "internalType": "uint256",
          "name": "tokenId",
          "type": "uint256"
        }
      ],
      "name": "Approval",
      "type": "event"
    },
    {
      "anonymous": false,
      "inputs": [
        {
          "indexed": true,
          "internalType": "address",
          "name": "owner",
          "type": "address"
        },
        {
          "indexed": true,
          "internalType": "address",
          "name": "operator",
          "type": "address"
        },
        {
          "indexed": false,
          "internalType": "bool",
          "name": "approved",
          "type": "bool"
        }
      ],
      "name": "ApprovalForAll",
      "type": "event"
    },
    {
      "anonymous": false,
      "inputs": [
        {
          "indexed": false,
          "internalType": "address",
          "name": "recipient",
          "type": "address"
        },
        {
          "indexed": false,
          "internalType": "uint256",
          "name": "tokenId",
          "type": "uint256"
        }
      ],
      "name": "Mint",
      "type": "event"
    },
    {
      "anonymous": false,
      "inputs": [
        {
          "indexed": true,
          "internalType": "address",
          "name": "from",
          "type": "address"
        },
        {
          "indexed": true,
          "internalType": "address",
          "name": "to",
          "type": "address"
        },
        {
          "indexed": true,
          "internalType": "uint256",
          "name": "tokenId",
          "type": "uint256"
        }
      ],
      "name": "Transfer",
      "type": "event"
    },
    {
      "inputs": [
        {
          "internalType": "address",
          "name": "to",
          "type": "address"
        },
        {
          "internalType": "uint256",
          "name": "tokenId",
          "type": "uint256"
        }
      ],
      "name": "approve",
      "outputs": [],
      "stateMutability": "nonpayable",
      "type": "function"
    },
    {
      "inputs": [
        {
          "internalType": "address",
          "name": "owner",
          "type": "address"
        }
      ],
      "name": "balanceOf",
      "outputs": [
        {
          "internalType": "uint256",
          "name": "",
          "type": "uint256"
        }
      ],
      "stateMutability": "view",
      "type": "function",
      "constant": true
    },
    {
      "inputs": [
        {
          "internalType": "uint256",
          "name": "",
          "type": "uint256"
        }
      ],
      "name": "forSale",
      "outputs": [
        {
          "internalType": "uint256",
          "name": "price",
          "type": "uint256"
        },
        {
          "internalType": "bool",
          "name": "status",
          "type": "bool"
        }
      ],
      "stateMutability": "view",
      "type": "function",
      "constant": true
    },
    {
      "inputs": [
        {
          "internalType": "uint256",
          "name": "tokenId",
          "type": "uint256"
        }
      ],
      "name": "getApproved",
      "outputs": [
        {
          "internalType": "address",
          "name": "",
          "type": "address"
        }
      ],
      "stateMutability": "view",
      "type": "function",
      "constant": true
    },
    {
      "inputs": [
        {
          "internalType": "address",
          "name": "owner",
          "type": "address"
        },
        {
          "internalType": "address",
          "name": "operator",
          "type": "address"
        }
      ],
      "name": "isApprovedForAll",
      "outputs": [
        {
          "internalType": "bool",
          "name": "",
          "type": "bool"
        }
      ],
      "stateMutability": "view",
      "type": "function",
      "constant": true
    },
    {
      "inputs": [
        {
          "internalType": "uint256",
          "name": "",
          "type": "uint256"
        }
      ],
      "name": "listIdNFT",
      "outputs": [
        {
          "internalType": "uint256",
          "name": "",
          "type": "uint256"
        }
      ],
      "stateMutability": "view",
      "type": "function",
      "constant": true
    },
    {
      "inputs": [],
      "name": "name",
      "outputs": [
        {
          "internalType": "string",
          "name": "",
          "type": "string"
        }
      ],
      "stateMutability": "view",
      "type": "function",
      "constant": true
    },
    {
      "inputs": [
        {
          "internalType": "uint256",
          "name": "tokenId",
          "type": "uint256"
        }
      ],
      "name": "ownerOf",
      "outputs": [
        {
          "internalType": "address",
          "name": "",
          "type": "address"
        }
      ],
      "stateMutability": "view",
      "type": "function",
      "constant": true
    },
    {
      "inputs": [
        {
          "internalType": "address",
          "name": "from",
          "type": "address"
        },
        {
          "internalType": "address",
          "name": "to",
          "type": "address"
        },
        {
          "internalType": "uint256",
          "name": "tokenId",
          "type": "uint256"
        }
      ],
      "name": "safeTransferFrom",
      "outputs": [],
      "stateMutability": "nonpayable",
      "type": "function"
    },
    {
      "inputs": [
        {
          "internalType": "address",
          "name": "from",
          "type": "address"
        },
        {
          "internalType": "address",
          "name": "to",
          "type": "address"
        },
        {
          "internalType": "uint256",
          "name": "tokenId",
          "type": "uint256"
        },
        {
          "internalType": "bytes",
          "name": "_data",
          "type": "bytes"
        }
      ],
      "name": "safeTransferFrom",
      "outputs": [],
      "stateMutability": "nonpayable",
      "type": "function"
    },
    {
      "inputs": [
        {
          "internalType": "address",
          "name": "operator",
          "type": "address"
        },
        {
          "internalType": "bool",
          "name": "approved",
          "type": "bool"
        }
      ],
      "name": "setApprovalForAll",
      "outputs": [],
      "stateMutability": "nonpayable",
      "type": "function"
    },
    {
      "inputs": [
        {
          "internalType": "bytes4",
          "name": "interfaceId",
          "type": "bytes4"
        }
      ],
      "name": "supportsInterface",
      "outputs": [
        {
          "internalType": "bool",
          "name": "",
          "type": "bool"
        }
      ],
      "stateMutability": "view",
      "type": "function",
      "constant": true
    },
    {
      "inputs": [],
      "name": "symbol",
      "outputs": [
        {
          "internalType": "string",
          "name": "",
          "type": "string"
        }
      ],
      "stateMutability": "view",
      "type": "function",
      "constant": true
    },
    {
      "inputs": [
        {
          "internalType": "uint256",
          "name": "tokenId",
          "type": "uint256"
        }
      ],
      "name": "tokenURI",
      "outputs": [
        {
          "internalType": "string",
          "name": "",
          "type": "string"
        }
      ],
      "stateMutability": "view",
      "type": "function",
      "constant": true
    },
    {
      "inputs": [
        {
          "internalType": "address",
          "name": "from",
          "type": "address"
        },
        {
          "internalType": "address",
          "name": "to",
          "type": "address"
        },
        {
          "internalType": "uint256",
          "name": "tokenId",
          "type": "uint256"
        }
      ],
      "name": "transferFrom",
      "outputs": [],
      "stateMutability": "nonpayable",
      "type": "function"
    },
    {
      "inputs": [
        {
          "internalType": "uint256",
          "name": "_idToken",
          "type": "uint256"
        },
        {
          "internalType": "string",
          "name": "tokenURI",
          "type": "string"
        }
      ],
      "name": "mintToken",
      "outputs": [
        {
          "internalType": "uint256",
          "name": "",
          "type": "uint256"
        }
      ],
      "stateMutability": "nonpayable",
      "type": "function"
    },
    {
      "inputs": [],
      "name": "getListIdNFT",
      "outputs": [
        {
          "internalType": "uint256[]",
          "name": "",
          "type": "uint256[]"
        }
      ],
      "stateMutability": "view",
      "type": "function",
      "constant": true
    },
    {
      "inputs": [
        {
          "internalType": "uint256",
          "name": "_tokenID",
          "type": "uint256"
        },
        {
          "internalType": "uint256",
          "name": "_price",
          "type": "uint256"
        },
        {
          "internalType": "bool",
          "name": "_status",
          "type": "bool"
        }
      ],
      "name": "setStatus",
      "outputs": [],
      "stateMutability": "nonpayable",
      "type": "function"
    },
    {
      "inputs": [
        {
          "internalType": "uint256",
          "name": "_idToken",
          "type": "uint256"
        }
      ],
      "name": "unSale",
      "outputs": [],
      "stateMutability": "nonpayable",
      "type": "function"
    },
    {
      "inputs": [
        {
          "internalType": "uint256",
          "name": "_tokenId",
          "type": "uint256"
        }
      ],
      "name": "deleteNFT",
      "outputs": [],
      "stateMutability": "nonpayable",
      "type": "function"
    },
    {
      "inputs": [
        {
          "internalType": "uint256",
          "name": "_tokenId",
          "type": "uint256"
        }
      ],
      "name": "exists",
      "outputs": [
        {
          "internalType": "bool",
          "name": "",
          "type": "bool"
        }
      ],
      "stateMutability": "view",
      "type": "function",
      "constant": true
    }
  ],
  "bytecode": "0x60806040523480156200001157600080fd5b506040518060400160405280600581526020017f4d794e46540000000000000000000000000000000000000000000000000000008152506040518060400160405280600381526020017f4e46540000000000000000000000000000000000000000000000000000000000815250816000908051906020019062000096929190620000b8565b508060019080519060200190620000af929190620000b8565b505050620001cd565b828054620000c69062000168565b90600052602060002090601f016020900481019282620000ea576000855562000136565b82601f106200010557805160ff191683800117855562000136565b8280016001018555821562000136579182015b828111156200013557825182559160200191906001019062000118565b5b50905062000145919062000149565b5090565b5b80821115620001645760008160009055506001016200014a565b5090565b600060028204905060018216806200018157607f821691505b602082108114156200019857620001976200019e565b5b50919050565b7f4e487b7100000000000000000000000000000000000000000000000000000000600052602260045260246000fd5b6133b280620001dd6000396000f3fe608060405234801561001057600080fd5b50600436106101375760003560e01c806370a08231116100b8578063b88d4fde1161007c578063b88d4fde14610371578063c87b56dd1461038d578063e985e9c5146103bd578063ece04171146103ed578063f2ee915c1461040b578063f687ed571461043b57610137565b806370a08231146102bb578063752312a9146102eb57806395d89b411461031b5780639773b6f414610339578063a22cb4651461035557610137565b80632831f2f4116100ff5780632831f2f4146101f257806342842e0e146102235780634f558e791461023f5780636096fd631461026f5780636352211e1461028b57610137565b806301ffc9a71461013c57806306fdde031461016c578063081812fc1461018a578063095ea7b3146101ba57806323b872dd146101d6575b600080fd5b610156600480360381019061015191906122b1565b610457565b6040516101639190612c68565b60405180910390f35b610174610539565b6040516101819190612c83565b60405180910390f35b6101a4600480360381019061019f9190612303565b6105cb565b6040516101b19190612bb6565b60405180910390f35b6101d460048036038101906101cf9190612275565b610650565b005b6101f060048036038101906101eb919061216f565b610768565b005b61020c60048036038101906102079190612303565b6107c8565b60405161021a929190612f00565b60405180910390f35b61023d6004803603810190610238919061216f565b6107f9565b005b61025960048036038101906102549190612303565b610819565b6040516102669190612c68565b60405180910390f35b61028960048036038101906102849190612380565b61082b565b005b6102a560048036038101906102a09190612303565b610879565b6040516102b29190612bb6565b60405180910390f35b6102d560048036038101906102d0919061210a565b61092b565b6040516102e29190612ee5565b60405180910390f35b6103056004803603810190610300919061232c565b6109e3565b6040516103129190612ee5565b60405180910390f35b610323610a64565b6040516103309190612c83565b60405180910390f35b610353600480360381019061034e9190612303565b610af6565b005b61036f600480360381019061036a9190612239565b610b10565b005b61038b600480360381019061038691906121be565b610c91565b005b6103a760048036038101906103a29190612303565b610cf3565b6040516103b49190612c83565b60405180910390f35b6103d760048036038101906103d29190612133565b610e45565b6040516103e49190612c68565b60405180910390f35b6103f5610ed9565b6040516104029190612c46565b60405180910390f35b61042560048036038101906104209190612303565b610f31565b6040516104329190612ee5565b60405180910390f35b61045560048036038101906104509190612303565b610f55565b005b60007f80ac58cd000000000000000000000000000000000000000000000000000000007bffffffffffffffffffffffffffffffffffffffffffffffffffffffff1916827bffffffffffffffffffffffffffffffffffffffffffffffffffffffff1916148061052257507f5b5e139f000000000000000000000000000000000000000000000000000000007bffffffffffffffffffffffffffffffffffffffffffffffffffffffff1916827bffffffffffffffffffffffffffffffffffffffffffffffffffffffff1916145b80610532575061053182611028565b5b9050919050565b606060008054610548906131a7565b80601f0160208091040260200160405190810160405280929190818152602001828054610574906131a7565b80156105c15780601f10610596576101008083540402835291602001916105c1565b820191906000526020600020905b8154815290600101906020018083116105a457829003601f168201915b5050505050905090565b60006105d682611092565b610615576040517f08c379a000000000000000000000000000000000000000000000000000000000815260040161060c90612e45565b60405180910390fd5b6004600083815260200190815260200160002060009054906101000a900473ffffffffffffffffffffffffffffffffffffffff169050919050565b600061065b82610879565b90508073ffffffffffffffffffffffffffffffffffffffff168373ffffffffffffffffffffffffffffffffffffffff1614156106cc576040517f08c379a00000000000000000000000000000000000000000000000000000000081526004016106c390612ea5565b60405180910390fd5b8073ffffffffffffffffffffffffffffffffffffffff166106eb6110fe565b73ffffffffffffffffffffffffffffffffffffffff16148061071a5750610719816107146110fe565b610e45565b5b610759576040517f08c379a000000000000000000000000000000000000000000000000000000000815260040161075090612d65565b60405180910390fd5b6107638383611106565b505050565b6107796107736110fe565b826111bf565b6107b8576040517f08c379a00000000000000000000000000000000000000000000000000000000081526004016107af90612ec5565b60405180910390fd5b6107c383838361129d565b505050565b60076020528060005260406000206000915090508060000154908060010160009054906101000a900460ff16905082565b61081483838360405180602001604052806000815250610c91565b505050565b600061082482611092565b9050919050565b816007600085815260200190815260200160002060000181905550806007600085815260200190815260200160002060010160006101000a81548160ff021916908315150217905550505050565b6000806002600084815260200190815260200160002060009054906101000a900473ffffffffffffffffffffffffffffffffffffffff169050600073ffffffffffffffffffffffffffffffffffffffff168173ffffffffffffffffffffffffffffffffffffffff161415610922576040517f08c379a000000000000000000000000000000000000000000000000000000000815260040161091990612da5565b60405180910390fd5b80915050919050565b60008073ffffffffffffffffffffffffffffffffffffffff168273ffffffffffffffffffffffffffffffffffffffff16141561099c576040517f08c379a000000000000000000000000000000000000000000000000000000000815260040161099390612d85565b60405180910390fd5b600360008373ffffffffffffffffffffffffffffffffffffffff1673ffffffffffffffffffffffffffffffffffffffff168152602001908152602001600020549050919050565b60006109ef33846114f9565b6109f98383611517565b60088390806001815401808255809150506001900390600052602060002001600090919091909150557f0f6798a560793a54c3bcfe86a93cde1e73087d944c0ea20544137d41213968853384604051610a53929190612c1d565b60405180910390a182905092915050565b606060018054610a73906131a7565b80601f0160208091040260200160405190810160405280929190818152602001828054610a9f906131a7565b8015610aec5780601f10610ac157610100808354040283529160200191610aec565b820191906000526020600020905b815481529060010190602001808311610acf57829003601f168201915b5050505050905090565b610b028160008061082b565b610b0d600082610650565b50565b610b186110fe565b73ffffffffffffffffffffffffffffffffffffffff168273ffffffffffffffffffffffffffffffffffffffff161415610b86576040517f08c379a0000000000000000000000000000000000000000000000000000000008152600401610b7d90612d25565b60405180910390fd5b8060056000610b936110fe565b73ffffffffffffffffffffffffffffffffffffffff1673ffffffffffffffffffffffffffffffffffffffff16815260200190815260200160002060008473ffffffffffffffffffffffffffffffffffffffff1673ffffffffffffffffffffffffffffffffffffffff16815260200190815260200160002060006101000a81548160ff0219169083151502179055508173ffffffffffffffffffffffffffffffffffffffff16610c406110fe565b73ffffffffffffffffffffffffffffffffffffffff167f17307eab39ab6107e8899845ad3d59bd9653f200f220920489ca2b5937696c3183604051610c859190612c68565b60405180910390a35050565b610ca2610c9c6110fe565b836111bf565b610ce1576040517f08c379a0000000000000000000000000000000000000000000000000000000008152600401610cd890612ec5565b60405180910390fd5b610ced8484848461158b565b50505050565b6060610cfe82611092565b610d3d576040517f08c379a0000000000000000000000000000000000000000000000000000000008152600401610d3490612e25565b60405180910390fd5b6000600660008481526020019081526020016000208054610d5d906131a7565b80601f0160208091040260200160405190810160405280929190818152602001828054610d89906131a7565b8015610dd65780601f10610dab57610100808354040283529160200191610dd6565b820191906000526020600020905b815481529060010190602001808311610db957829003601f168201915b505050505090506000610de76115e7565b9050600081511415610dfd578192505050610e40565b600082511115610e32578082604051602001610e1a929190612b92565b60405160208183030381529060405292505050610e40565b610e3b846115fe565b925050505b919050565b6000600560008473ffffffffffffffffffffffffffffffffffffffff1673ffffffffffffffffffffffffffffffffffffffff16815260200190815260200160002060008373ffffffffffffffffffffffffffffffffffffffff1673ffffffffffffffffffffffffffffffffffffffff16815260200190815260200160002060009054906101000a900460ff16905092915050565b60606008805480602002602001604051908101604052809291908181526020018280548015610f2757602002820191906000526020600020905b815481526020019060010190808311610f13575b5050505050905090565b60088181548110610f4157600080fd5b906000526020600020016000915090505481565b610f5e81611092565b610f9d576040517f08c379a0000000000000000000000000000000000000000000000000000000008152600401610f9490612de5565b60405180910390fd5b3373ffffffffffffffffffffffffffffffffffffffff16610fbd82610879565b73ffffffffffffffffffffffffffffffffffffffff1614611013576040517f08c379a000000000000000000000000000000000000000000000000000000000815260040161100a90612ce5565b60405180910390fd5b61101c816116a5565b611025816116f8565b50565b60007f01ffc9a7000000000000000000000000000000000000000000000000000000007bffffffffffffffffffffffffffffffffffffffffffffffffffffffff1916827bffffffffffffffffffffffffffffffffffffffffffffffffffffffff1916149050919050565b60008073ffffffffffffffffffffffffffffffffffffffff166002600084815260200190815260200160002060009054906101000a900473ffffffffffffffffffffffffffffffffffffffff1673ffffffffffffffffffffffffffffffffffffffff1614159050919050565b600033905090565b816004600083815260200190815260200160002060006101000a81548173ffffffffffffffffffffffffffffffffffffffff021916908373ffffffffffffffffffffffffffffffffffffffff160217905550808273ffffffffffffffffffffffffffffffffffffffff1661117983610879565b73ffffffffffffffffffffffffffffffffffffffff167f8c5be1e5ebec7d5bd14f71427d1e84f3dd0314c0f7b2291e5b200ac8c7c3b92560405160405180910390a45050565b60006111ca82611092565b611209576040517f08c379a000000000000000000000000000000000000000000000000000000000815260040161120090612d45565b60405180910390fd5b600061121483610879565b90508073ffffffffffffffffffffffffffffffffffffffff168473ffffffffffffffffffffffffffffffffffffffff16148061128357508373ffffffffffffffffffffffffffffffffffffffff1661126b846105cb565b73ffffffffffffffffffffffffffffffffffffffff16145b8061129457506112938185610e45565b5b91505092915050565b8273ffffffffffffffffffffffffffffffffffffffff166112bd82610879565b73ffffffffffffffffffffffffffffffffffffffff1614611313576040517f08c379a000000000000000000000000000000000000000000000000000000000815260040161130a90612e65565b60405180910390fd5b600073ffffffffffffffffffffffffffffffffffffffff168273ffffffffffffffffffffffffffffffffffffffff161415611383576040517f08c379a000000000000000000000000000000000000000000000000000000000815260040161137a90612d05565b60405180910390fd5b61138e838383611858565b611399600082611106565b6001600360008573ffffffffffffffffffffffffffffffffffffffff1673ffffffffffffffffffffffffffffffffffffffff16815260200190815260200160002060008282546113e991906130bd565b925050819055506001600360008473ffffffffffffffffffffffffffffffffffffffff1673ffffffffffffffffffffffffffffffffffffffff16815260200190815260200160002060008282546114409190613036565b92505081905550816002600083815260200190815260200160002060006101000a81548173ffffffffffffffffffffffffffffffffffffffff021916908373ffffffffffffffffffffffffffffffffffffffff160217905550808273ffffffffffffffffffffffffffffffffffffffff168473ffffffffffffffffffffffffffffffffffffffff167fddf252ad1be2c89b69c2b068fc378daa952ba7f163c4a11628f55a4df523b3ef60405160405180910390a4505050565b61151382826040518060200160405280600081525061185d565b5050565b61152082611092565b61155f576040517f08c379a000000000000000000000000000000000000000000000000000000000815260040161155690612dc5565b60405180910390fd5b80600660008481526020019081526020016000209080519060200190611586929190611eee565b505050565b61159684848461129d565b6115a2848484846118b8565b6115e1576040517f08c379a00000000000000000000000000000000000000000000000000000000081526004016115d890612ca5565b60405180910390fd5b50505050565b606060405180602001604052806000815250905090565b606061160982611092565b611648576040517f08c379a000000000000000000000000000000000000000000000000000000000815260040161163f90612e85565b60405180910390fd5b60006116526115e7565b90506000815111611672576040518060200160405280600081525061169d565b8061167c84611a4f565b60405160200161168d929190612b92565b6040516020818303038152906040525b915050919050565b6116ae81611bfc565b60006006600083815260200190815260200160002080546116ce906131a7565b9050146116f5576006600082815260200190815260200160002060006116f49190611f74565b5b50565b60005b600880549050811015611854578160088281548110611743577f4e487b7100000000000000000000000000000000000000000000000000000000600052603260045260246000fd5b90600052602060002001541415611841576008600160088054905061176891906130bd565b8154811061179f577f4e487b7100000000000000000000000000000000000000000000000000000000600052603260045260246000fd5b9060005260206000200154600882815481106117e4577f4e487b7100000000000000000000000000000000000000000000000000000000600052603260045260246000fd5b9060005260206000200181905550600880548061182a577f4e487b7100000000000000000000000000000000000000000000000000000000600052603160045260246000fd5b600190038181906000526020600020016000905590555b808061184c906131d9565b9150506116fb565b5050565b505050565b6118678383611d0d565b61187460008484846118b8565b6118b3576040517f08c379a00000000000000000000000000000000000000000000000000000000081526004016118aa90612ca5565b60405180910390fd5b505050565b60006118d98473ffffffffffffffffffffffffffffffffffffffff16611edb565b15611a42578373ffffffffffffffffffffffffffffffffffffffff1663150b7a026119026110fe565b8786866040518563ffffffff1660e01b81526004016119249493929190612bd1565b602060405180830381600087803b15801561193e57600080fd5b505af192505050801561196f57506040513d601f19601f8201168201806040525081019061196c91906122da565b60015b6119f2573d806000811461199f576040519150601f19603f3d011682016040523d82523d6000602084013e6119a4565b606091505b506000815114156119ea576040517f08c379a00000000000000000000000000000000000000000000000000000000081526004016119e190612ca5565b60405180910390fd5b805181602001fd5b63150b7a0260e01b7bffffffffffffffffffffffffffffffffffffffffffffffffffffffff1916817bffffffffffffffffffffffffffffffffffffffffffffffffffffffff191614915050611a47565b600190505b949350505050565b60606000821415611a97576040518060400160405280600181526020017f30000000000000000000000000000000000000000000000000000000000000008152509050611bf7565b600082905060005b60008214611ac9578080611ab2906131d9565b915050600a82611ac2919061308c565b9150611a9f565b60008167ffffffffffffffff811115611b0b577f4e487b7100000000000000000000000000000000000000000000000000000000600052604160045260246000fd5b6040519080825280601f01601f191660200182016040528015611b3d5781602001600182028036833780820191505090505b5090505b60008514611bf057600182611b5691906130bd565b9150600a85611b659190613222565b6030611b719190613036565b60f81b818381518110611bad577f4e487b7100000000000000000000000000000000000000000000000000000000600052603260045260246000fd5b60200101907effffffffffffffffffffffffffffffffffffffffffffffffffffffffffffff1916908160001a905350600a85611be9919061308c565b9450611b41565b8093505050505b919050565b6000611c0782610879565b9050611c1581600084611858565b611c20600083611106565b6001600360008373ffffffffffffffffffffffffffffffffffffffff1673ffffffffffffffffffffffffffffffffffffffff1681526020019081526020016000206000828254611c7091906130bd565b925050819055506002600083815260200190815260200160002060006101000a81549073ffffffffffffffffffffffffffffffffffffffff021916905581600073ffffffffffffffffffffffffffffffffffffffff168273ffffffffffffffffffffffffffffffffffffffff167fddf252ad1be2c89b69c2b068fc378daa952ba7f163c4a11628f55a4df523b3ef60405160405180910390a45050565b600073ffffffffffffffffffffffffffffffffffffffff168273ffffffffffffffffffffffffffffffffffffffff161415611d7d576040517f08c379a0000000000000000000000000000000000000000000000000000000008152600401611d7490612e05565b60405180910390fd5b611d8681611092565b15611dc6576040517f08c379a0000000000000000000000000000000000000000000000000000000008152600401611dbd90612cc5565b60405180910390fd5b611dd260008383611858565b6001600360008473ffffffffffffffffffffffffffffffffffffffff1673ffffffffffffffffffffffffffffffffffffffff1681526020019081526020016000206000828254611e229190613036565b92505081905550816002600083815260200190815260200160002060006101000a81548173ffffffffffffffffffffffffffffffffffffffff021916908373ffffffffffffffffffffffffffffffffffffffff160217905550808273ffffffffffffffffffffffffffffffffffffffff16600073ffffffffffffffffffffffffffffffffffffffff167fddf252ad1be2c89b69c2b068fc378daa952ba7f163c4a11628f55a4df523b3ef60405160405180910390a45050565b600080823b905060008111915050919050565b828054611efa906131a7565b90600052602060002090601f016020900481019282611f1c5760008555611f63565b82601f10611f3557805160ff1916838001178555611f63565b82800160010185558215611f63579182015b82811115611f62578251825591602001919060010190611f47565b5b509050611f709190611fb4565b5090565b508054611f80906131a7565b6000825580601f10611f925750611fb1565b601f016020900490600052602060002090810190611fb09190611fb4565b5b50565b5b80821115611fcd576000816000905550600101611fb5565b5090565b6000611fe4611fdf84612f5a565b612f29565b905082815260208101848484011115611ffc57600080fd5b612007848285613165565b509392505050565b600061202261201d84612f8a565b612f29565b90508281526020810184848401111561203a57600080fd5b612045848285613165565b509392505050565b60008135905061205c81613320565b92915050565b60008135905061207181613337565b92915050565b6000813590506120868161334e565b92915050565b60008151905061209b8161334e565b92915050565b600082601f8301126120b257600080fd5b81356120c2848260208601611fd1565b91505092915050565b600082601f8301126120dc57600080fd5b81356120ec84826020860161200f565b91505092915050565b60008135905061210481613365565b92915050565b60006020828403121561211c57600080fd5b600061212a8482850161204d565b91505092915050565b6000806040838503121561214657600080fd5b60006121548582860161204d565b92505060206121658582860161204d565b9150509250929050565b60008060006060848603121561218457600080fd5b60006121928682870161204d565b93505060206121a38682870161204d565b92505060406121b4868287016120f5565b9150509250925092565b600080600080608085870312156121d457600080fd5b60006121e28782880161204d565b94505060206121f38782880161204d565b9350506040612204878288016120f5565b925050606085013567ffffffffffffffff81111561222157600080fd5b61222d878288016120a1565b91505092959194509250565b6000806040838503121561224c57600080fd5b600061225a8582860161204d565b925050602061226b85828601612062565b9150509250929050565b6000806040838503121561228857600080fd5b60006122968582860161204d565b92505060206122a7858286016120f5565b9150509250929050565b6000602082840312156122c357600080fd5b60006122d184828501612077565b91505092915050565b6000602082840312156122ec57600080fd5b60006122fa8482850161208c565b91505092915050565b60006020828403121561231557600080fd5b6000612323848285016120f5565b91505092915050565b6000806040838503121561233f57600080fd5b600061234d858286016120f5565b925050602083013567ffffffffffffffff81111561236a57600080fd5b612376858286016120cb565b9150509250929050565b60008060006060848603121561239557600080fd5b60006123a3868287016120f5565b93505060206123b4868287016120f5565b92505060406123c586828701612062565b9150509250925092565b60006123db8383612b74565b60208301905092915050565b6123f0816130f1565b82525050565b600061240182612fca565b61240b8185612ff8565b935061241683612fba565b8060005b8381101561244757815161242e88826123cf565b975061243983612feb565b92505060018101905061241a565b5085935050505092915050565b61245d81613103565b82525050565b600061246e82612fd5565b6124788185613009565b9350612488818560208601613174565b6124918161330f565b840191505092915050565b60006124a782612fe0565b6124b1818561301a565b93506124c1818560208601613174565b6124ca8161330f565b840191505092915050565b60006124e082612fe0565b6124ea818561302b565b93506124fa818560208601613174565b80840191505092915050565b600061251360328361301a565b91507f4552433732313a207472616e7366657220746f206e6f6e20455243373231526560008301527f63656976657220696d706c656d656e74657200000000000000000000000000006020830152604082019050919050565b6000612579601c8361301a565b91507f4552433732313a20746f6b656e20616c7265616479206d696e746564000000006000830152602082019050919050565b60006125b960148361301a565b91507f546f6b656e206973206e6f74206f776e656420210000000000000000000000006000830152602082019050919050565b60006125f960248361301a565b91507f4552433732313a207472616e7366657220746f20746865207a65726f2061646460008301527f72657373000000000000000000000000000000000000000000000000000000006020830152604082019050919050565b600061265f60198361301a565b91507f4552433732313a20617070726f766520746f2063616c6c6572000000000000006000830152602082019050919050565b600061269f602c8361301a565b91507f4552433732313a206f70657261746f7220717565727920666f72206e6f6e657860008301527f697374656e7420746f6b656e00000000000000000000000000000000000000006020830152604082019050919050565b600061270560388361301a565b91507f4552433732313a20617070726f76652063616c6c6572206973206e6f74206f7760008301527f6e6572206e6f7220617070726f76656420666f7220616c6c00000000000000006020830152604082019050919050565b600061276b602a8361301a565b91507f4552433732313a2062616c616e636520717565727920666f7220746865207a6560008301527f726f2061646472657373000000000000000000000000000000000000000000006020830152604082019050919050565b60006127d160298361301a565b91507f4552433732313a206f776e657220717565727920666f72206e6f6e657869737460008301527f656e7420746f6b656e00000000000000000000000000000000000000000000006020830152604082019050919050565b6000612837602e8361301a565b91507f45524337323155524953746f726167653a2055524920736574206f66206e6f6e60008301527f6578697374656e7420746f6b656e0000000000000000000000000000000000006020830152604082019050919050565b600061289d60148361301a565b91507f546f6b656e206973206e6f7420657869737420210000000000000000000000006000830152602082019050919050565b60006128dd60208361301a565b91507f4552433732313a206d696e7420746f20746865207a65726f20616464726573736000830152602082019050919050565b600061291d60318361301a565b91507f45524337323155524953746f726167653a2055524920717565727920666f722060008301527f6e6f6e6578697374656e7420746f6b656e0000000000000000000000000000006020830152604082019050919050565b6000612983602c8361301a565b91507f4552433732313a20617070726f76656420717565727920666f72206e6f6e657860008301527f697374656e7420746f6b656e00000000000000000000000000000000000000006020830152604082019050919050565b60006129e960298361301a565b91507f4552433732313a207472616e73666572206f6620746f6b656e2074686174206960008301527f73206e6f74206f776e00000000000000000000000000000000000000000000006020830152604082019050919050565b6000612a4f602f8361301a565b91507f4552433732314d657461646174613a2055524920717565727920666f72206e6f60008301527f6e6578697374656e7420746f6b656e00000000000000000000000000000000006020830152604082019050919050565b6000612ab560218361301a565b91507f4552433732313a20617070726f76616c20746f2063757272656e74206f776e6560008301527f72000000000000000000000000000000000000000000000000000000000000006020830152604082019050919050565b6000612b1b60318361301a565b91507f4552433732313a207472616e736665722063616c6c6572206973206e6f74206f60008301527f776e6572206e6f7220617070726f7665640000000000000000000000000000006020830152604082019050919050565b612b7d8161315b565b82525050565b612b8c8161315b565b82525050565b6000612b9e82856124d5565b9150612baa82846124d5565b91508190509392505050565b6000602082019050612bcb60008301846123e7565b92915050565b6000608082019050612be660008301876123e7565b612bf360208301866123e7565b612c006040830185612b83565b8181036060830152612c128184612463565b905095945050505050565b6000604082019050612c3260008301856123e7565b612c3f6020830184612b83565b9392505050565b60006020820190508181036000830152612c6081846123f6565b905092915050565b6000602082019050612c7d6000830184612454565b92915050565b60006020820190508181036000830152612c9d818461249c565b905092915050565b60006020820190508181036000830152612cbe81612506565b9050919050565b60006020820190508181036000830152612cde8161256c565b9050919050565b60006020820190508181036000830152612cfe816125ac565b9050919050565b60006020820190508181036000830152612d1e816125ec565b9050919050565b60006020820190508181036000830152612d3e81612652565b9050919050565b60006020820190508181036000830152612d5e81612692565b9050919050565b60006020820190508181036000830152612d7e816126f8565b9050919050565b60006020820190508181036000830152612d9e8161275e565b9050919050565b60006020820190508181036000830152612dbe816127c4565b9050919050565b60006020820190508181036000830152612dde8161282a565b9050919050565b60006020820190508181036000830152612dfe81612890565b9050919050565b60006020820190508181036000830152612e1e816128d0565b9050919050565b60006020820190508181036000830152612e3e81612910565b9050919050565b60006020820190508181036000830152612e5e81612976565b9050919050565b60006020820190508181036000830152612e7e816129dc565b9050919050565b60006020820190508181036000830152612e9e81612a42565b9050919050565b60006020820190508181036000830152612ebe81612aa8565b9050919050565b60006020820190508181036000830152612ede81612b0e565b9050919050565b6000602082019050612efa6000830184612b83565b92915050565b6000604082019050612f156000830185612b83565b612f226020830184612454565b9392505050565b6000604051905081810181811067ffffffffffffffff82111715612f5057612f4f6132e0565b5b8060405250919050565b600067ffffffffffffffff821115612f7557612f746132e0565b5b601f19601f8301169050602081019050919050565b600067ffffffffffffffff821115612fa557612fa46132e0565b5b601f19601f8301169050602081019050919050565b6000819050602082019050919050565b600081519050919050565b600081519050919050565b600081519050919050565b6000602082019050919050565b600082825260208201905092915050565b600082825260208201905092915050565b600082825260208201905092915050565b600081905092915050565b60006130418261315b565b915061304c8361315b565b9250827fffffffffffffffffffffffffffffffffffffffffffffffffffffffffffffffff0382111561308157613080613253565b5b828201905092915050565b60006130978261315b565b91506130a28361315b565b9250826130b2576130b1613282565b5b828204905092915050565b60006130c88261315b565b91506130d38361315b565b9250828210156130e6576130e5613253565b5b828203905092915050565b60006130fc8261313b565b9050919050565b60008115159050919050565b60007fffffffff0000000000000000000000000000000000000000000000000000000082169050919050565b600073ffffffffffffffffffffffffffffffffffffffff82169050919050565b6000819050919050565b82818337600083830152505050565b60005b83811015613192578082015181840152602081019050613177565b838111156131a1576000848401525b50505050565b600060028204905060018216806131bf57607f821691505b602082108114156131d3576131d26132b1565b5b50919050565b60006131e48261315b565b91507fffffffffffffffffffffffffffffffffffffffffffffffffffffffffffffffff82141561321757613216613253565b5b600182019050919050565b600061322d8261315b565b91506132388361315b565b92508261324857613247613282565b5b828206905092915050565b7f4e487b7100000000000000000000000000000000000000000000000000000000600052601160045260246000fd5b7f4e487b7100000000000000000000000000000000000000000000000000000000600052601260045260246000fd5b7f4e487b7100000000000000000000000000000000000000000000000000000000600052602260045260246000fd5b7f4e487b7100000000000000000000000000000000000000000000000000000000600052604160045260246000fd5b6000601f19601f8301169050919050565b613329816130f1565b811461333457600080fd5b50565b61334081613103565b811461334b57600080fd5b50565b6133578161310f565b811461336257600080fd5b50565b61336e8161315b565b811461337957600080fd5b5056fea26469706673582212208874752ffd94330b5010dc3b96f23479ecdafc15eb1ce1dbbea98aa9ba75640a64736f6c63430008000033",
  "immutableReferences": {},
  "source": "// SPDX-License-Identifier: MIT\npragma solidity ^0.8.0;\n\nimport \"@openzeppelin/contracts/token/ERC721/extensions/ERC721URIStorage.sol\";\n    \ncontract MyNFT is ERC721URIStorage {\n    mapping (uint =>TokenInfo) public forSale ;\n    event Mint(address recipient, uint tokenId);\n    constructor() ERC721(\"MyNFT\", \"NFT\") {}\n    uint[] public listIdNFT;\n\n    struct TokenInfo {\n        uint price;\n        bool status;\n    }\n    \n    // Create NFT\n    function mintToken(uint _idToken, string memory tokenURI) public returns (uint)\n    {\n        _safeMint(msg.sender, _idToken);\n        _setTokenURI(_idToken, tokenURI);\n        listIdNFT.push(_idToken);\n        emit Mint(msg.sender, _idToken);\n        return _idToken;\n    }\n    \n    function getListIdNFT() public view returns(uint[] memory) {\n        return listIdNFT;\n    }\n    \n    function removeListNFT(uint _tokenId) private {\n        for (uint i = 0; i < listIdNFT.length; i++) {\n            if (listIdNFT[i] == _tokenId) {\n                listIdNFT[i] = listIdNFT[listIdNFT.length - 1];\n                listIdNFT.pop();\n            }\n        }\n    }\n    \n    function setStatus(uint _tokenID, uint _price, bool _status) public{\n        forSale[_tokenID].price = _price;\n        forSale[_tokenID].status = _status;\n    }\n    \n\n    // UnSale nft \n    function unSale(uint _idToken) public{\n        setStatus(_idToken, 0, false);\n        approve(address(0),_idToken);\n        \n    }\n\n    //delete token\n    function deleteNFT(uint _tokenId) public  {\n        require (_exists(_tokenId) , \"Token is not exist !\");\n        require (ownerOf(_tokenId) == msg.sender ,  \"Token is not owned !\" );\n        _burn(_tokenId);\n        removeListNFT(_tokenId);\n    }\n    //Check exists of token\n    function exists(uint _tokenId) public view returns (bool) {\n        return _exists(_tokenId);\n    }\n}\n",
  "sourcePath": "/home/tung/Desktop/MyNFT/nft_web3/contracts/MyNFT.sol",
  "compiler": {
    "name": "solc",
    "version": "0.8.0+commit.c7dfd78e.Emscripten.clang"
  },
  "schemaVersion": "3.4.1",
  "updatedAt": "2021-06-05T08:44:59.765Z",
  "networkType": "ethereum",
  "devdoc": {
    "kind": "dev",
    "methods": {
      "approve(address,uint256)": {
        "details": "See {IERC721-approve}."
      },
      "balanceOf(address)": {
        "details": "See {IERC721-balanceOf}."
      },
      "getApproved(uint256)": {
        "details": "See {IERC721-getApproved}."
      },
      "isApprovedForAll(address,address)": {
        "details": "See {IERC721-isApprovedForAll}."
      },
      "name()": {
        "details": "See {IERC721Metadata-name}."
      },
      "ownerOf(uint256)": {
        "details": "See {IERC721-ownerOf}."
      },
      "safeTransferFrom(address,address,uint256)": {
        "details": "See {IERC721-safeTransferFrom}."
      },
      "safeTransferFrom(address,address,uint256,bytes)": {
        "details": "See {IERC721-safeTransferFrom}."
      },
      "setApprovalForAll(address,bool)": {
        "details": "See {IERC721-setApprovalForAll}."
      },
      "supportsInterface(bytes4)": {
        "details": "See {IERC165-supportsInterface}."
      },
      "symbol()": {
        "details": "See {IERC721Metadata-symbol}."
      },
      "tokenURI(uint256)": {
        "details": "See {IERC721Metadata-tokenURI}."
      },
      "transferFrom(address,address,uint256)": {
        "details": "See {IERC721-transferFrom}."
      }
    },
    "version": 1
  },
  "userdoc": {
    "kind": "user",
    "methods": {},
    "version": 1
  }
}