{
  "contractName": "TokenFactory",
  "abi": [
    {
      "inputs": [],
      "stateMutability": "nonpayable",
      "type": "constructor"
    },
    {
      "anonymous": false,
      "inputs": [
        {
          "indexed": true,
          "internalType": "address",
          "name": "owner",
          "type": "address"
        },
        {
          "indexed": true,
          "internalType": "address",
          "name": "spender",
          "type": "address"
        },
        {
          "indexed": false,
          "internalType": "uint256",
          "name": "value",
          "type": "uint256"
        }
      ],
      "name": "Approval",
      "type": "event"
    },
    {
      "anonymous": false,
      "inputs": [
        {
          "indexed": false,
          "internalType": "uint256",
          "name": "amount",
          "type": "uint256"
        }
      ],
      "name": "Bought",
      "type": "event"
    },
    {
      "anonymous": false,
      "inputs": [
        {
          "indexed": true,
          "internalType": "address",
          "name": "previousOwner",
          "type": "address"
        },
        {
          "indexed": true,
          "internalType": "address",
          "name": "newOwner",
          "type": "address"
        }
      ],
      "name": "OwnershipTransferred",
      "type": "event"
    },
    {
      "anonymous": false,
      "inputs": [
        {
          "indexed": true,
          "internalType": "address",
          "name": "from",
          "type": "address"
        },
        {
          "indexed": true,
          "internalType": "address",
          "name": "to",
          "type": "address"
        },
        {
          "indexed": false,
          "internalType": "uint256",
          "name": "value",
          "type": "uint256"
        }
      ],
      "name": "Transfer",
      "type": "event"
    },
    {
      "anonymous": false,
      "inputs": [
        {
          "indexed": false,
          "internalType": "address",
          "name": "owner",
          "type": "address"
        },
        {
          "indexed": false,
          "internalType": "uint256",
          "name": "amount",
          "type": "uint256"
        }
      ],
      "name": "Withdraw",
      "type": "event"
    },
    {
      "inputs": [
        {
          "internalType": "address",
          "name": "owner",
          "type": "address"
        },
        {
          "internalType": "address",
          "name": "spender",
          "type": "address"
        }
      ],
      "name": "allowance",
      "outputs": [
        {
          "internalType": "uint256",
          "name": "",
          "type": "uint256"
        }
      ],
      "stateMutability": "view",
      "type": "function",
      "constant": true
    },
    {
      "inputs": [
        {
          "internalType": "address",
          "name": "spender",
          "type": "address"
        },
        {
          "internalType": "uint256",
          "name": "amount",
          "type": "uint256"
        }
      ],
      "name": "approve",
      "outputs": [
        {
          "internalType": "bool",
          "name": "",
          "type": "bool"
        }
      ],
      "stateMutability": "nonpayable",
      "type": "function"
    },
    {
      "inputs": [
        {
          "internalType": "address",
          "name": "account",
          "type": "address"
        }
      ],
      "name": "balanceOf",
      "outputs": [
        {
          "internalType": "uint256",
          "name": "",
          "type": "uint256"
        }
      ],
      "stateMutability": "view",
      "type": "function",
      "constant": true
    },
    {
      "inputs": [],
      "name": "decimals",
      "outputs": [
        {
          "internalType": "uint8",
          "name": "",
          "type": "uint8"
        }
      ],
      "stateMutability": "view",
      "type": "function",
      "constant": true
    },
    {
      "inputs": [
        {
          "internalType": "address",
          "name": "spender",
          "type": "address"
        },
        {
          "internalType": "uint256",
          "name": "subtractedValue",
          "type": "uint256"
        }
      ],
      "name": "decreaseAllowance",
      "outputs": [
        {
          "internalType": "bool",
          "name": "",
          "type": "bool"
        }
      ],
      "stateMutability": "nonpayable",
      "type": "function"
    },
    {
      "inputs": [
        {
          "internalType": "address",
          "name": "spender",
          "type": "address"
        },
        {
          "internalType": "uint256",
          "name": "addedValue",
          "type": "uint256"
        }
      ],
      "name": "increaseAllowance",
      "outputs": [
        {
          "internalType": "bool",
          "name": "",
          "type": "bool"
        }
      ],
      "stateMutability": "nonpayable",
      "type": "function"
    },
    {
      "inputs": [],
      "name": "name",
      "outputs": [
        {
          "internalType": "string",
          "name": "",
          "type": "string"
        }
      ],
      "stateMutability": "view",
      "type": "function",
      "constant": true
    },
    {
      "inputs": [],
      "name": "owner",
      "outputs": [
        {
          "internalType": "address",
          "name": "",
          "type": "address"
        }
      ],
      "stateMutability": "view",
      "type": "function",
      "constant": true
    },
    {
      "inputs": [],
      "name": "renounceOwnership",
      "outputs": [],
      "stateMutability": "nonpayable",
      "type": "function"
    },
    {
      "inputs": [],
      "name": "symbol",
      "outputs": [
        {
          "internalType": "string",
          "name": "",
          "type": "string"
        }
      ],
      "stateMutability": "view",
      "type": "function",
      "constant": true
    },
    {
      "inputs": [],
      "name": "totalSupply",
      "outputs": [
        {
          "internalType": "uint256",
          "name": "",
          "type": "uint256"
        }
      ],
      "stateMutability": "view",
      "type": "function",
      "constant": true
    },
    {
      "inputs": [
        {
          "internalType": "address",
          "name": "recipient",
          "type": "address"
        },
        {
          "internalType": "uint256",
          "name": "amount",
          "type": "uint256"
        }
      ],
      "name": "transfer",
      "outputs": [
        {
          "internalType": "bool",
          "name": "",
          "type": "bool"
        }
      ],
      "stateMutability": "nonpayable",
      "type": "function"
    },
    {
      "inputs": [
        {
          "internalType": "address",
          "name": "sender",
          "type": "address"
        },
        {
          "internalType": "address",
          "name": "recipient",
          "type": "address"
        },
        {
          "internalType": "uint256",
          "name": "amount",
          "type": "uint256"
        }
      ],
      "name": "transferFrom",
      "outputs": [
        {
          "internalType": "bool",
          "name": "",
          "type": "bool"
        }
      ],
      "stateMutability": "nonpayable",
      "type": "function"
    },
    {
      "inputs": [
        {
          "internalType": "address",
          "name": "newOwner",
          "type": "address"
        }
      ],
      "name": "transferOwnership",
      "outputs": [],
      "stateMutability": "nonpayable",
      "type": "function"
    },
    {
      "inputs": [],
      "name": "testbalance",
      "outputs": [
        {
          "internalType": "uint256",
          "name": "",
          "type": "uint256"
        }
      ],
      "stateMutability": "view",
      "type": "function",
      "constant": true
    },
    {
      "inputs": [],
      "name": "buyToken",
      "outputs": [],
      "stateMutability": "payable",
      "type": "function",
      "payable": true
    },
    {
      "inputs": [],
      "name": "addTokenSupply",
      "outputs": [],
      "stateMutability": "nonpayable",
      "type": "function"
    },
    {
      "inputs": [],
      "name": "systemInfo",
      "outputs": [
        {
          "internalType": "uint256",
          "name": "",
          "type": "uint256"
        },
        {
          "internalType": "uint256",
          "name": "",
          "type": "uint256"
        },
        {
          "internalType": "uint256",
          "name": "",
          "type": "uint256"
        }
      ],
      "stateMutability": "view",
      "type": "function",
      "constant": true
    },
    {
      "inputs": [],
      "name": "withdraw",
      "outputs": [],
      "stateMutability": "payable",
      "type": "function",
      "payable": true
    }
  ],
  "bytecode": "0x608060405260006009553480156200001657600080fd5b506040518060400160405280601081526020017f4552433230207465737420746f6b656e000000000000000000000000000000008152506040518060400160405280600381526020017f453230000000000000000000000000000000000000000000000000000000000081525081600390805190602001906200009b92919062000436565b508060049080519060200190620000b492919062000436565b5050506000620000c96200027360201b60201c565b905080600560006101000a81548173ffffffffffffffffffffffffffffffffffffffff021916908373ffffffffffffffffffffffffffffffffffffffff1602179055508073ffffffffffffffffffffffffffffffffffffffff16600073ffffffffffffffffffffffffffffffffffffffff167f8be0079c531659141344cd1fd0a4f28419497f9722a3daafe3b4186f6b6457e060405160405180910390a35033600760006101000a81548173ffffffffffffffffffffffffffffffffffffffff021916908373ffffffffffffffffffffffffffffffffffffffff160217905550620001f5336002620001c06200027b60201b60201c565b600a620001ce919062000679565b6103e8620001dd9190620007b6565b620001e99190620005e6565b6200028460201b60201c565b620002413060026200020c6200027b60201b60201c565b600a6200021a919062000679565b6103e8620002299190620007b6565b620002359190620005e6565b6200028460201b60201c565b6200025230620003e960201b60201c565b60088190555060054262000267919062000589565b600681905550620008fe565b600033905090565b60006012905090565b600073ffffffffffffffffffffffffffffffffffffffff168273ffffffffffffffffffffffffffffffffffffffff161415620002f7576040517f08c379a0000000000000000000000000000000000000000000000000000000008152600401620002ee9062000539565b60405180910390fd5b6200030b600083836200043160201b60201c565b80600260008282546200031f919062000589565b92505081905550806000808473ffffffffffffffffffffffffffffffffffffffff1673ffffffffffffffffffffffffffffffffffffffff168152602001908152602001600020600082825462000376919062000589565b925050819055508173ffffffffffffffffffffffffffffffffffffffff16600073ffffffffffffffffffffffffffffffffffffffff167fddf252ad1be2c89b69c2b068fc378daa952ba7f163c4a11628f55a4df523b3ef83604051620003dd91906200055b565b60405180910390a35050565b60008060008373ffffffffffffffffffffffffffffffffffffffff1673ffffffffffffffffffffffffffffffffffffffff168152602001908152602001600020549050919050565b505050565b82805462000444906200082e565b90600052602060002090601f016020900481019282620004685760008555620004b4565b82601f106200048357805160ff1916838001178555620004b4565b82800160010185558215620004b4579182015b82811115620004b357825182559160200191906001019062000496565b5b509050620004c39190620004c7565b5090565b5b80821115620004e2576000816000905550600101620004c8565b5090565b6000620004f5601f8362000578565b91507f45524332303a206d696e7420746f20746865207a65726f2061646472657373006000830152602082019050919050565b620005338162000817565b82525050565b600060208201905081810360008301526200055481620004e6565b9050919050565b600060208201905062000572600083018462000528565b92915050565b600082825260208201905092915050565b6000620005968262000817565b9150620005a38362000817565b9250827fffffffffffffffffffffffffffffffffffffffffffffffffffffffffffffffff03821115620005db57620005da62000864565b5b828201905092915050565b6000620005f38262000817565b9150620006008362000817565b92508262000613576200061262000893565b5b828204905092915050565b6000808291508390505b6001851115620006705780860481111562000648576200064762000864565b5b6001851615620006585780820291505b80810290506200066885620008f1565b945062000628565b94509492505050565b6000620006868262000817565b9150620006938362000821565b9250620006c27fffffffffffffffffffffffffffffffffffffffffffffffffffffffffffffffff8484620006ca565b905092915050565b600082620006dc5760019050620007af565b81620006ec5760009050620007af565b8160018114620007055760028114620007105762000746565b6001915050620007af565b60ff84111562000725576200072462000864565b5b8360020a9150848211156200073f576200073e62000864565b5b50620007af565b5060208310610133831016604e8410600b8410161715620007805782820a9050838111156200077a576200077962000864565b5b620007af565b6200078f84848460016200061e565b92509050818404811115620007a957620007a862000864565b5b81810290505b9392505050565b6000620007c38262000817565b9150620007d08362000817565b9250817fffffffffffffffffffffffffffffffffffffffffffffffffffffffffffffffff04831182151516156200080c576200080b62000864565b5b828202905092915050565b6000819050919050565b600060ff82169050919050565b600060028204905060018216806200084757607f821691505b602082108114156200085e576200085d620008c2565b5b50919050565b7f4e487b7100000000000000000000000000000000000000000000000000000000600052601160045260246000fd5b7f4e487b7100000000000000000000000000000000000000000000000000000000600052601260045260246000fd5b7f4e487b7100000000000000000000000000000000000000000000000000000000600052602260045260246000fd5b60008160011c9050919050565b612388806200090e6000396000f3fe6080604052600436106101145760003560e01c806370a08231116100a0578063a482171911610064578063a482171914610386578063a9059cbb14610390578063dd62ed3e146103cd578063f2fde38b1461040a578063f70dd4b71461043357610114565b806370a082311461029f578063715018a6146102dc5780638da5cb5b146102f357806395d89b411461031e578063a457c2d71461034957610114565b80632a12408e116100e75780632a12408e146101e9578063313ce5671461021657806339509351146102415780633ccfd60b1461027e5780633d7ee1e31461028857610114565b806306fdde0314610119578063095ea7b31461014457806318160ddd1461018157806323b872dd146101ac575b600080fd5b34801561012557600080fd5b5061012e61045e565b60405161013b9190611d37565b60405180910390f35b34801561015057600080fd5b5061016b60048036038101906101669190611768565b6104f0565b6040516101789190611d1c565b60405180910390f35b34801561018d57600080fd5b5061019661050e565b6040516101a39190611ef9565b60405180910390f35b3480156101b857600080fd5b506101d360048036038101906101ce9190611719565b610518565b6040516101e09190611d1c565b60405180910390f35b3480156101f557600080fd5b506101fe610619565b60405161020d93929190611f14565b60405180910390f35b34801561022257600080fd5b5061022b610637565b6040516102389190611f4b565b60405180910390f35b34801561024d57600080fd5b5061026860048036038101906102639190611768565b610640565b6040516102759190611d1c565b60405180910390f35b6102866106ec565b005b34801561029457600080fd5b5061029d61080c565b005b3480156102ab57600080fd5b506102c660048036038101906102c191906116b4565b6108eb565b6040516102d39190611ef9565b60405180910390f35b3480156102e857600080fd5b506102f1610933565b005b3480156102ff57600080fd5b50610308610a70565b6040516103159190611cd8565b60405180910390f35b34801561032a57600080fd5b50610333610a9a565b6040516103409190611d37565b60405180910390f35b34801561035557600080fd5b50610370600480360381019061036b9190611768565b610b2c565b60405161037d9190611d1c565b60405180910390f35b61038e610c20565b005b34801561039c57600080fd5b506103b760048036038101906103b29190611768565b610df9565b6040516103c49190611d1c565b60405180910390f35b3480156103d957600080fd5b506103f460048036038101906103ef91906116dd565b610e17565b6040516104019190611ef9565b60405180910390f35b34801561041657600080fd5b50610431600480360381019061042c91906116b4565b610e9e565b005b34801561043f57600080fd5b5061044861104a565b6040516104559190611ef9565b60405180910390f35b60606003805461046d9061225f565b80601f01602080910402602001604051908101604052809291908181526020018280546104999061225f565b80156104e65780601f106104bb576101008083540402835291602001916104e6565b820191906000526020600020905b8154815290600101906020018083116104c957829003601f168201915b5050505050905090565b60006105046104fd611052565b848461105a565b6001905092915050565b6000600254905090565b6000610525848484611225565b6000600160008673ffffffffffffffffffffffffffffffffffffffff1673ffffffffffffffffffffffffffffffffffffffff1681526020019081526020016000206000610570611052565b73ffffffffffffffffffffffffffffffffffffffff1673ffffffffffffffffffffffffffffffffffffffff168152602001908152602001600020549050828110156105f0576040517f08c379a00000000000000000000000000000000000000000000000000000000081526004016105e790611e19565b60405180910390fd5b61060d856105fc611052565b858461060891906121a3565b61105a565b60019150509392505050565b600080600061062661050e565b600854600954925092509250909192565b60006012905090565b60006106e261064d611052565b84846001600061065b611052565b73ffffffffffffffffffffffffffffffffffffffff1673ffffffffffffffffffffffffffffffffffffffff16815260200190815260200160002060008873ffffffffffffffffffffffffffffffffffffffff1673ffffffffffffffffffffffffffffffffffffffff168152602001908152602001600020546106dd9190611f82565b61105a565b6001905092915050565b6106f4611052565b73ffffffffffffffffffffffffffffffffffffffff16610712610a70565b73ffffffffffffffffffffffffffffffffffffffff1614610768576040517f08c379a000000000000000000000000000000000000000000000000000000000815260040161075f90611e39565b60405180910390fd5b3373ffffffffffffffffffffffffffffffffffffffff166108fc479081150290604051600060405180830381858888f193505050501580156107ae573d6000803e3d6000fd5b507f884edad9ce6fa2440d8a54cc123490eb96d2768479d49ff9c7366125a9424364600760009054906101000a900473ffffffffffffffffffffffffffffffffffffffff1647604051610802929190611cf3565b60405180910390a1565b610814611052565b73ffffffffffffffffffffffffffffffffffffffff16610832610a70565b73ffffffffffffffffffffffffffffffffffffffff1614610888576040517f08c379a000000000000000000000000000000000000000000000000000000000815260040161087f90611e39565b60405180910390fd5b6108b130610894610637565b600a6108a0919061202b565b60326108ac9190612149565b6114a4565b6108b9610637565b600a6108c5919061202b565b60326108d19190612149565b600860008282546108e29190611f82565b92505081905550565b60008060008373ffffffffffffffffffffffffffffffffffffffff1673ffffffffffffffffffffffffffffffffffffffff168152602001908152602001600020549050919050565b61093b611052565b73ffffffffffffffffffffffffffffffffffffffff16610959610a70565b73ffffffffffffffffffffffffffffffffffffffff16146109af576040517f08c379a00000000000000000000000000000000000000000000000000000000081526004016109a690611e39565b60405180910390fd5b600073ffffffffffffffffffffffffffffffffffffffff16600560009054906101000a900473ffffffffffffffffffffffffffffffffffffffff1673ffffffffffffffffffffffffffffffffffffffff167f8be0079c531659141344cd1fd0a4f28419497f9722a3daafe3b4186f6b6457e060405160405180910390a36000600560006101000a81548173ffffffffffffffffffffffffffffffffffffffff021916908373ffffffffffffffffffffffffffffffffffffffff160217905550565b6000600560009054906101000a900473ffffffffffffffffffffffffffffffffffffffff16905090565b606060048054610aa99061225f565b80601f0160208091040260200160405190810160405280929190818152602001828054610ad59061225f565b8015610b225780601f10610af757610100808354040283529160200191610b22565b820191906000526020600020905b815481529060010190602001808311610b0557829003601f168201915b5050505050905090565b60008060016000610b3b611052565b73ffffffffffffffffffffffffffffffffffffffff1673ffffffffffffffffffffffffffffffffffffffff16815260200190815260200160002060008573ffffffffffffffffffffffffffffffffffffffff1673ffffffffffffffffffffffffffffffffffffffff16815260200190815260200160002054905082811015610bf8576040517f08c379a0000000000000000000000000000000000000000000000000000000008152600401610bef90611eb9565b60405180910390fd5b610c15610c03611052565b858584610c1091906121a3565b61105a565b600191505092915050565b6000610c2b346115f8565b90504260065410610c71576040517f08c379a0000000000000000000000000000000000000000000000000000000008152600401610c6890611dd9565b60405180910390fd5b60003411610cb4576040517f08c379a0000000000000000000000000000000000000000000000000000000008152600401610cab90611df9565b60405180910390fd5b610cbd306108eb565b811115610cff576040517f08c379a0000000000000000000000000000000000000000000000000000000008152600401610cf690611e99565b60405180910390fd5b3073ffffffffffffffffffffffffffffffffffffffff1663a9059cbb33836040518363ffffffff1660e01b8152600401610d3a929190611cf3565b602060405180830381600087803b158015610d5457600080fd5b505af1158015610d68573d6000803e3d6000fd5b505050506040513d601f19601f82011682018060405250810190610d8c91906117a4565b508060096000828254610d9f9190611f82565b925050819055508060086000828254610db891906121a3565b925050819055507f4e08ba899977cf7d4c2964bce71c6b9a7ef76ee5166a4c1249a1e08016e33ef134604051610dee9190611ef9565b60405180910390a150565b6000610e0d610e06611052565b8484611225565b6001905092915050565b6000600160008473ffffffffffffffffffffffffffffffffffffffff1673ffffffffffffffffffffffffffffffffffffffff16815260200190815260200160002060008373ffffffffffffffffffffffffffffffffffffffff1673ffffffffffffffffffffffffffffffffffffffff16815260200190815260200160002054905092915050565b610ea6611052565b73ffffffffffffffffffffffffffffffffffffffff16610ec4610a70565b73ffffffffffffffffffffffffffffffffffffffff1614610f1a576040517f08c379a0000000000000000000000000000000000000000000000000000000008152600401610f1190611e39565b60405180910390fd5b600073ffffffffffffffffffffffffffffffffffffffff168173ffffffffffffffffffffffffffffffffffffffff161415610f8a576040517f08c379a0000000000000000000000000000000000000000000000000000000008152600401610f8190611d79565b60405180910390fd5b8073ffffffffffffffffffffffffffffffffffffffff16600560009054906101000a900473ffffffffffffffffffffffffffffffffffffffff1673ffffffffffffffffffffffffffffffffffffffff167f8be0079c531659141344cd1fd0a4f28419497f9722a3daafe3b4186f6b6457e060405160405180910390a380600560006101000a81548173ffffffffffffffffffffffffffffffffffffffff021916908373ffffffffffffffffffffffffffffffffffffffff16021790555050565b600047905090565b600033905090565b600073ffffffffffffffffffffffffffffffffffffffff168373ffffffffffffffffffffffffffffffffffffffff1614156110ca576040517f08c379a00000000000000000000000000000000000000000000000000000000081526004016110c190611e79565b60405180910390fd5b600073ffffffffffffffffffffffffffffffffffffffff168273ffffffffffffffffffffffffffffffffffffffff16141561113a576040517f08c379a000000000000000000000000000000000000000000000000000000000815260040161113190611d99565b60405180910390fd5b80600160008573ffffffffffffffffffffffffffffffffffffffff1673ffffffffffffffffffffffffffffffffffffffff16815260200190815260200160002060008473ffffffffffffffffffffffffffffffffffffffff1673ffffffffffffffffffffffffffffffffffffffff168152602001908152602001600020819055508173ffffffffffffffffffffffffffffffffffffffff168373ffffffffffffffffffffffffffffffffffffffff167f8c5be1e5ebec7d5bd14f71427d1e84f3dd0314c0f7b2291e5b200ac8c7c3b925836040516112189190611ef9565b60405180910390a3505050565b600073ffffffffffffffffffffffffffffffffffffffff168373ffffffffffffffffffffffffffffffffffffffff161415611295576040517f08c379a000000000000000000000000000000000000000000000000000000000815260040161128c90611e59565b60405180910390fd5b600073ffffffffffffffffffffffffffffffffffffffff168273ffffffffffffffffffffffffffffffffffffffff161415611305576040517f08c379a00000000000000000000000000000000000000000000000000000000081526004016112fc90611d59565b60405180910390fd5b611310838383611670565b60008060008573ffffffffffffffffffffffffffffffffffffffff1673ffffffffffffffffffffffffffffffffffffffff16815260200190815260200160002054905081811015611396576040517f08c379a000000000000000000000000000000000000000000000000000000000815260040161138d90611db9565b60405180910390fd5b81816113a291906121a3565b6000808673ffffffffffffffffffffffffffffffffffffffff1673ffffffffffffffffffffffffffffffffffffffff16815260200190815260200160002081905550816000808573ffffffffffffffffffffffffffffffffffffffff1673ffffffffffffffffffffffffffffffffffffffff16815260200190815260200160002060008282546114329190611f82565b925050819055508273ffffffffffffffffffffffffffffffffffffffff168473ffffffffffffffffffffffffffffffffffffffff167fddf252ad1be2c89b69c2b068fc378daa952ba7f163c4a11628f55a4df523b3ef846040516114969190611ef9565b60405180910390a350505050565b600073ffffffffffffffffffffffffffffffffffffffff168273ffffffffffffffffffffffffffffffffffffffff161415611514576040517f08c379a000000000000000000000000000000000000000000000000000000000815260040161150b90611ed9565b60405180910390fd5b61152060008383611670565b80600260008282546115329190611f82565b92505081905550806000808473ffffffffffffffffffffffffffffffffffffffff1673ffffffffffffffffffffffffffffffffffffffff16815260200190815260200160002060008282546115879190611f82565b925050819055508173ffffffffffffffffffffffffffffffffffffffff16600073ffffffffffffffffffffffffffffffffffffffff167fddf252ad1be2c89b69c2b068fc378daa952ba7f163c4a11628f55a4df523b3ef836040516115ec9190611ef9565b60405180910390a35050565b6000806006544261160991906121a3565b9050600060b482101561162a576005846116239190612149565b9050611666565b60b4821015801561163c57506101a482105b156116555760048461164e9190612149565b9050611665565b6003846116629190612149565b90505b5b8092505050919050565b505050565b6000813590506116848161230d565b92915050565b60008151905061169981612324565b92915050565b6000813590506116ae8161233b565b92915050565b6000602082840312156116c657600080fd5b60006116d484828501611675565b91505092915050565b600080604083850312156116f057600080fd5b60006116fe85828601611675565b925050602061170f85828601611675565b9150509250929050565b60008060006060848603121561172e57600080fd5b600061173c86828701611675565b935050602061174d86828701611675565b925050604061175e8682870161169f565b9150509250925092565b6000806040838503121561177b57600080fd5b600061178985828601611675565b925050602061179a8582860161169f565b9150509250929050565b6000602082840312156117b657600080fd5b60006117c48482850161168a565b91505092915050565b6117d6816121d7565b82525050565b6117e5816121e9565b82525050565b60006117f682611f66565b6118008185611f71565b935061181081856020860161222c565b611819816122ef565b840191505092915050565b6000611831602383611f71565b91507f45524332303a207472616e7366657220746f20746865207a65726f206164647260008301527f65737300000000000000000000000000000000000000000000000000000000006020830152604082019050919050565b6000611897602683611f71565b91507f4f776e61626c653a206e6577206f776e657220697320746865207a65726f206160008301527f64647265737300000000000000000000000000000000000000000000000000006020830152604082019050919050565b60006118fd602283611f71565b91507f45524332303a20617070726f766520746f20746865207a65726f20616464726560008301527f73730000000000000000000000000000000000000000000000000000000000006020830152604082019050919050565b6000611963602683611f71565b91507f45524332303a207472616e7366657220616d6f756e742065786365656473206260008301527f616c616e636500000000000000000000000000000000000000000000000000006020830152604082019050919050565b60006119c9601583611f71565b91507f546f6b656e732061726520756e73616c65206e6f7700000000000000000000006000830152602082019050919050565b6000611a09601983611f71565b91507f796f75206d75737420656e74657220736f6d65206574686572000000000000006000830152602082019050919050565b6000611a49602883611f71565b91507f45524332303a207472616e7366657220616d6f756e742065786365656473206160008301527f6c6c6f77616e63650000000000000000000000000000000000000000000000006020830152604082019050919050565b6000611aaf602083611f71565b91507f4f776e61626c653a2063616c6c6572206973206e6f7420746865206f776e65726000830152602082019050919050565b6000611aef602583611f71565b91507f45524332303a207472616e736665722066726f6d20746865207a65726f20616460008301527f64726573730000000000000000000000000000000000000000000000000000006020830152604082019050919050565b6000611b55602483611f71565b91507f45524332303a20617070726f76652066726f6d20746865207a65726f2061646460008301527f72657373000000000000000000000000000000000000000000000000000000006020830152604082019050919050565b6000611bbb602883611f71565b91507f616464726573732062616c616e6365206c6f776572207468616e20746f6b656e60008301527f20726571756573740000000000000000000000000000000000000000000000006020830152604082019050919050565b6000611c21602583611f71565b91507f45524332303a2064656372656173656420616c6c6f77616e63652062656c6f7760008301527f207a65726f0000000000000000000000000000000000000000000000000000006020830152604082019050919050565b6000611c87601f83611f71565b91507f45524332303a206d696e7420746f20746865207a65726f2061646472657373006000830152602082019050919050565b611cc381612215565b82525050565b611cd28161221f565b82525050565b6000602082019050611ced60008301846117cd565b92915050565b6000604082019050611d0860008301856117cd565b611d156020830184611cba565b9392505050565b6000602082019050611d3160008301846117dc565b92915050565b60006020820190508181036000830152611d5181846117eb565b905092915050565b60006020820190508181036000830152611d7281611824565b9050919050565b60006020820190508181036000830152611d928161188a565b9050919050565b60006020820190508181036000830152611db2816118f0565b9050919050565b60006020820190508181036000830152611dd281611956565b9050919050565b60006020820190508181036000830152611df2816119bc565b9050919050565b60006020820190508181036000830152611e12816119fc565b9050919050565b60006020820190508181036000830152611e3281611a3c565b9050919050565b60006020820190508181036000830152611e5281611aa2565b9050919050565b60006020820190508181036000830152611e7281611ae2565b9050919050565b60006020820190508181036000830152611e9281611b48565b9050919050565b60006020820190508181036000830152611eb281611bae565b9050919050565b60006020820190508181036000830152611ed281611c14565b9050919050565b60006020820190508181036000830152611ef281611c7a565b9050919050565b6000602082019050611f0e6000830184611cba565b92915050565b6000606082019050611f296000830186611cba565b611f366020830185611cba565b611f436040830184611cba565b949350505050565b6000602082019050611f606000830184611cc9565b92915050565b600081519050919050565b600082825260208201905092915050565b6000611f8d82612215565b9150611f9883612215565b9250827fffffffffffffffffffffffffffffffffffffffffffffffffffffffffffffffff03821115611fcd57611fcc612291565b5b828201905092915050565b6000808291508390505b600185111561202257808604811115611ffe57611ffd612291565b5b600185161561200d5780820291505b808102905061201b85612300565b9450611fe2565b94509492505050565b600061203682612215565b91506120418361221f565b925061206e7fffffffffffffffffffffffffffffffffffffffffffffffffffffffffffffffff8484612076565b905092915050565b6000826120865760019050612142565b816120945760009050612142565b81600181146120aa57600281146120b4576120e3565b6001915050612142565b60ff8411156120c6576120c5612291565b5b8360020a9150848211156120dd576120dc612291565b5b50612142565b5060208310610133831016604e8410600b84101617156121185782820a90508381111561211357612112612291565b5b612142565b6121258484846001611fd8565b9250905081840481111561213c5761213b612291565b5b81810290505b9392505050565b600061215482612215565b915061215f83612215565b9250817fffffffffffffffffffffffffffffffffffffffffffffffffffffffffffffffff048311821515161561219857612197612291565b5b828202905092915050565b60006121ae82612215565b91506121b983612215565b9250828210156121cc576121cb612291565b5b828203905092915050565b60006121e2826121f5565b9050919050565b60008115159050919050565b600073ffffffffffffffffffffffffffffffffffffffff82169050919050565b6000819050919050565b600060ff82169050919050565b60005b8381101561224a57808201518184015260208101905061222f565b83811115612259576000848401525b50505050565b6000600282049050600182168061227757607f821691505b6020821081141561228b5761228a6122c0565b5b50919050565b7f4e487b7100000000000000000000000000000000000000000000000000000000600052601160045260246000fd5b7f4e487b7100000000000000000000000000000000000000000000000000000000600052602260045260246000fd5b6000601f19601f8301169050919050565b60008160011c9050919050565b612316816121d7565b811461232157600080fd5b50565b61232d816121e9565b811461233857600080fd5b50565b61234481612215565b811461234f57600080fd5b5056fea2646970667358221220200da4ca60c59e7e470b56e1ccf7c6a7e9cb44ff99a247c2cda19abdd95ba09864736f6c63430008000033",
  "immutableReferences": {},
  "source": "// SPDX-License-Identifier: MIT\npragma solidity ^0.8.0;\n\nimport \"@openzeppelin/contracts/token/ERC20/ERC20.sol\";\nimport \"@openzeppelin/contracts/access/Ownable.sol\";\n\ncontract TokenFactory is ERC20, Ownable{\n    \n    event Bought(uint256 amount);\n    event Withdraw(address owner, uint256 amount);\n    \n    uint private timePutOnSale;\n    address private ownerAddress;\n    uint256 private remaingToken;\n    uint256 private soldToken = 0;\n    \n\n    function testbalance() public view returns(uint256){\n        return address(this).balance;\n    }\n    \n    constructor() ERC20(\"ERC20 test token\", \"E20\"){\n        ownerAddress = msg.sender;\n        _mint(msg.sender, 1000*10**decimals()/2);\n        _mint(address(this), 1000*10**decimals()/2);\n        remaingToken = balanceOf(address(this));\n        timePutOnSale = block.timestamp + 5 seconds;\n    }\n\n     function tokenPrice(uint256 amount) private view returns(uint256){\n        uint256 time = block.timestamp - timePutOnSale;\n        uint256 tokenAmount;\n        if (time < 3 minutes){\n            tokenAmount = amount * 5;\n        } else if(time >= 3 minutes && time < 7 minutes){\n            tokenAmount = amount * 4;\n        } else {\n            tokenAmount = amount * 3;\n        }\n        return tokenAmount;\n    }\n    \n    function buyToken() public payable{\n        uint256 totalToken = tokenPrice(msg.value);\n        require(timePutOnSale < block.timestamp, \"Tokens are unsale now\");\n        require(msg.value > 0, \"you must enter some ether\");\n        require(totalToken <= balanceOf(address(this)), \"address balance lower than token request\");\n        this.transfer(msg.sender, totalToken);\n        soldToken += (totalToken); \n        remaingToken -= totalToken;\n        emit Bought(msg.value);\n    }\n\n    function addTokenSupply() public onlyOwner{\n        _mint(address(this), 50*10**decimals());\n        remaingToken += 50*10**decimals();\n    }\n    \n    //Schedule backend\n    function systemInfo() public view returns(uint, uint, uint){\n        return(totalSupply(), remaingToken, soldToken);\n    }\n    \n    function withdraw() public payable onlyOwner{\n        payable(msg.sender).transfer(address(this).balance);\n        emit Withdraw(ownerAddress, address(this).balance);\n    }\n}\n",
  "sourcePath": "/home/tung/Desktop/MyNFT/nft_web3/contracts/ERC20Token.sol",
  "compiler": {
    "name": "solc",
    "version": "0.8.0+commit.c7dfd78e.Emscripten.clang"
  },
  "schemaVersion": "3.4.1",
  "updatedAt": "2021-06-05T08:44:59.820Z",
  "networkType": "ethereum",
  "devdoc": {
    "kind": "dev",
    "methods": {
      "allowance(address,address)": {
        "details": "See {IERC20-allowance}."
      },
      "approve(address,uint256)": {
        "details": "See {IERC20-approve}. Requirements: - `spender` cannot be the zero address."
      },
      "balanceOf(address)": {
        "details": "See {IERC20-balanceOf}."
      },
      "decimals()": {
        "details": "Returns the number of decimals used to get its user representation. For example, if `decimals` equals `2`, a balance of `505` tokens should be displayed to a user as `5,05` (`505 / 10 ** 2`). Tokens usually opt for a value of 18, imitating the relationship between Ether and Wei. This is the value {ERC20} uses, unless this function is overridden; NOTE: This information is only used for _display_ purposes: it in no way affects any of the arithmetic of the contract, including {IERC20-balanceOf} and {IERC20-transfer}."
      },
      "decreaseAllowance(address,uint256)": {
        "details": "Atomically decreases the allowance granted to `spender` by the caller. This is an alternative to {approve} that can be used as a mitigation for problems described in {IERC20-approve}. Emits an {Approval} event indicating the updated allowance. Requirements: - `spender` cannot be the zero address. - `spender` must have allowance for the caller of at least `subtractedValue`."
      },
      "increaseAllowance(address,uint256)": {
        "details": "Atomically increases the allowance granted to `spender` by the caller. This is an alternative to {approve} that can be used as a mitigation for problems described in {IERC20-approve}. Emits an {Approval} event indicating the updated allowance. Requirements: - `spender` cannot be the zero address."
      },
      "name()": {
        "details": "Returns the name of the token."
      },
      "owner()": {
        "details": "Returns the address of the current owner."
      },
      "renounceOwnership()": {
        "details": "Leaves the contract without owner. It will not be possible to call `onlyOwner` functions anymore. Can only be called by the current owner. NOTE: Renouncing ownership will leave the contract without an owner, thereby removing any functionality that is only available to the owner."
      },
      "symbol()": {
        "details": "Returns the symbol of the token, usually a shorter version of the name."
      },
      "totalSupply()": {
        "details": "See {IERC20-totalSupply}."
      },
      "transfer(address,uint256)": {
        "details": "See {IERC20-transfer}. Requirements: - `recipient` cannot be the zero address. - the caller must have a balance of at least `amount`."
      },
      "transferFrom(address,address,uint256)": {
        "details": "See {IERC20-transferFrom}. Emits an {Approval} event indicating the updated allowance. This is not required by the EIP. See the note at the beginning of {ERC20}. Requirements: - `sender` and `recipient` cannot be the zero address. - `sender` must have a balance of at least `amount`. - the caller must have allowance for ``sender``'s tokens of at least `amount`."
      },
      "transferOwnership(address)": {
        "details": "Transfers ownership of the contract to a new account (`newOwner`). Can only be called by the current owner."
      }
    },
    "version": 1
  },
  "userdoc": {
    "kind": "user",
    "methods": {},
    "version": 1
  }
}